:060000000A128A11122809
:10000800FE00030EF1000408F2000A08F300831250
:1000180003137F08F4000A128A117F280A128A1132
:1000280094288B170B17831603138C16243098000B
:1000380090308312031398008130831603139900BC
:100048008030870086100611861106127508613AFD
:10005800031D2F28302834288312031386143428CC
:100068007508623A031D39283A283E28831203137B
:1000780086103E287508633A031D432844284828FB
:1000880083120313061548287508643A031D4D2882
:100098004E28522883120313061152287508653A10
:1000A800031D572858285C288312031386155C28DB
:1000B8007508663A031D61286228662883120313AF
:1000C800861166287508673A031D6B286C28702806
:1000D80083120313061670287508683A031D7528DD
:1000E80076282A288312031306122A282A282A285F
:1000F8000A128A1112288C1E8228832889281A0835
:10010800F0007008F5008C1289287408FF00730845
:100118008A0072088400710E8300FE0E7E0E0900AC
:0A012800F50183010A128A1115285F
:02400E003AFF77
:00000001FF
